:100000000C942A000C943E000C945B000C946A0043
:100010000C943C000C943C000C943C000C94790033
:100020000C943C000C943C000C943C000C943C0060
:100030000C943C000C943C000C943C000C943C0050
:100040000C943C000C943C000C943C000C943C0040
:100050000C943C0011241FBECFE5D8E0DEBFCDBF1D
:1000600010E0A0E6B0E001C01D92A736B107E1F7AD
:100070000E94F7000C9466010C9400001F920F92EE
:100080000FB60F9211248F93EF93FF938091660028
:1000900006C0E82FF0E0E05AFF4F10828F5F8630F5
:1000A000C0F380936600FF91EF918F910F900FBE88
:1000B0000F901F9018951F920F920FB60F92112458
:1000C0008F938EB5887F8EBD8F910F900FBE0F904E
:1000D0001F9018951F920F920FB60F9211248F93B5
:1000E0008EB583608EBD8F910F900FBE0F901F90C5
:1000F00018951F920F920FB60F9211248F93809133
:1001000060008F5F809360008F910F900FBE0F9003
:100110001F901895809160008A3038F0109260002E
:10012000809161008F5F80936100809161008630D3
:1001300038F010926100809162008F5F80936200BE
:10014000809162008A3038F01092620080916300E2
:100150008F5F8093630080916300863038F0109247
:100160006300809164008F5F8093640080916400DD
:100170008A3038F010926400809165008F5F809320
:10018000650080916500833080F080916400853047
:1001900060F010926500109264001092630010925B
:1001A00062001092610010926000089528E02FBD57
:1001B0002BE02EBD1DBC1CBC9BBD8ABD89B78061D8
:1001C00089BF089585B7826085BF8BB780648BBF78
:1001D000089585B78C6085BF8BB780688BBF089505
:1001E00084B78F7B84BF8BB780628BBF0895CF921B
:1001F000DF92EF92FF920F931F93CF93DF938FE3E2
:100200008ABB1BBA8FE084BB15BA8A98929A8B98E6
:100210009398BA98C29A8FB780688FBF88E08FBDD5
:100220008BE08EBD1DBC1CBC89E09DE39BBD8ABDDF
:1002300089B7806189BF85B7826085BF8BB78064CD
:100240008BBF85B78C6085BF8BB780688BBF84B749
:100250008F7B84BF8BB780628BBF30E2C32EC2EE30
:10026000D4E020E1D22E98E0E92E84E0F82E02E0DE
:1002700011E00E948A00CBBA8091600085BBCE015C
:100280000197F1F7DBBA8091610085BBCE01019740
:10029000F1F7EBBA8091620085BBCE010197F1F7CF
:1002A000FBBA8091630085BBCE010197F1F70BBBD0
:1002B0008091640085BBCE010197F1F71BBB809153
:1002C000650085BBCE010197F1F7D3CFF894FFCF3E
:00000001FF
